:100000000C9472000C9493000C9493000C94930045
:100010000C9493000C9493000C9493000C94930014
:100020000C9493000C9493000C9493000C94930004
:100030000C9493000C9493000C9493000C949300F4
:100040000C9493000C9493000C9493000C949300E4
:100050000C9493000C9493000C9493000C949300D4
:100060000C9493000C9410010C9493000C94930046
:100070000C9493000C9493000C9493000C949300B4
:100080000C9493000C9493000C9493000C949300A4
:100090000C9493000C9493000C9493000C94930094
:1000A0000C9493000C9493000C9493000C94930084
:1000B0000C9493000C9493000C9493000C94930074
:1000C0000C9493000C9493000C9493000C94930064
:1000D0000C9493000C9493000C9493000C94930054
:1000E0000C94930011241FBECFEFD1E2DEBFCDBF31
:1000F00000E00CBF12E0A0E0B2E0ECEEF2E000E0C5
:100100000BBF02C007900D92A030B107D9F712E0E3
:10011000A0E0B2E001C01D92A130B107E1F70E945A
:1001200071010C9474010C940000E1E2F1E0108282
:100130008FEF8093250191E0909324011092290183
:100140008093280110922B0180932A0110922D0197
:1001500080932C0189EA809320018BE080830895AD
:100160008093280160932A01089592B1907F8F7047
:10017000982B92B9089586E00E94B500089589E011
:100180000E94B500089585E00E94B50008958AE0B8
:100190000E94B500089584E00E94B500089582E0B1
:1001A0000E94B500089581E00E94B500089588E09E
:1001B0000E94B500089580E00E94B50008953B9A22
:1001C0004398089581B18F6081B982B1807F82B9EF
:1001D000EAE0F1E0808188618083EBE0F1E08081FA
:1001E0008861808308950E94E2000E94DF000895E4
:1001F00086B1886088B9089586B1877F88B90895E7
:10020000E1ECF0E010821092C00086E08093C20022
:100210008FE58093C4001092C50088E9808308951B
:100220001F920F920FB60F920BB60F9211242F93BD
:100230003F934F935F936F937F938F939F93AF936E
:10024000BF93EF93FF93E6ECF0E080818093000290
:100250008083883311F40E94BB00809100028233B6
:1002600011F40E94BF0080910002843311F40E94B7
:10027000C30080910002863311F40E94C700809170
:100280000002853311F40E94DB0080910002873365
:1002900011F40E94F80080910002893311F40E9449
:1002A000FC00FF91EF91BF91AF919F918F917F9152
:1002B0006F915F914F913F912F910F900BBE0F90D7
:1002C0000FBE0F901F901895F8940E94F3000E94A3
:1002D00095008CED6CED0E94B0000E9400017894B6
:0C02E00008950E946401FFCFF894FFCF46
:00000001FF
